:100000000201753134110D314D215601E943890248
:0F001000758CD2758AD2D2A9D2B9D28CD2AF2236
:10002300215F110375080175099030890E208B0B30
:1000330074142509F509E43508F508208909308B7E
:100043000675080075092820890F308B0C74FE256E
:1000530009F50974FF3508F508E508C313F50AE542
:100063000913F50BAE0AFF7C007D0551018E0C8F41
:100073000DE50CFF3168AF0DE50D3168E509B4906E
:1000830013E508B4010E7D017F0131237D017F015A
:10009300312380487D0A7F0131233170AE0CAF0DCF
:1000A3007C007D645113AD077F0231233170AE0CA8
:1000B300AF0D7C007D6451137E007F0ACFCDCFCE80
:1000C300CCCE5113AD077F0331233170AE0CAF0D8E
:1000D3007C007D0A51137F043123317031707D0B15
:1000E3007F063123012DC0E0C083C082C0D0050F3D
:1000F300E50F7002050EC39509E50E9508401875C6
:100103000E00750F00E51090027F93F5800510E552
:1001130010B46403751000D0D0D082D083D0E03205
:10012300EFC43354E0440FF5A0ED9002E393F59050
:10013300223141C29FD29ED2ACC29CD2AF2243890C
:1001430020758DFD758BFDD28E22D288C2B8D2A8C0
:10015300D2AF22D28AC2BAD2AAD2AF2230980385B2
:100163009911C298328F993099FDC299227F0BDF82
:10017300FE22787FE4F6D8FD7581110201BC0200EE
:1001830025E493A3F8E493A34003F68001F208DF88
:10019300F48029E493A3F85407240CC8C333C4544C
:1001A3000F4420C8834004F456800146F6DFE48000
:1001B3000B0102040810204080900268E47E019342
:1001C30060BCA3FF543F30E509541FFEE493A360D2
:1001D300010ECF54C025E060A840B8E493A3FAE42D
:1001E30093A3F8E493A3C8C582C8CAC583CAF0A37E
:1001F300C8C582C8CAC583CADFE9DEE780BEEF8D02
:10020300F0A4A8F0CF8CF0A428CE8DF0A42EFE226B
:10021300BC000BBE0029EF8DF084FFADF022E4CCCF
:10022300F875F008EF2FFFEE33FEEC33FCEE9DEC98
:10023300984005FCEE9DFE0FD5F0E9E4CEFD22EDDE
:10024300F8F5F0EE8420D21CFEADF075F008EF2F28
:10025300FFED33FD4007985006D5F0F222C398FD19
:100263000FD5F0EA2202080000020A0000020C0087
:1002730000020E0000011000011100008088909818
:10028300A0A7AFB6BDC4CBD1D7DDE2E7ECF0F3F75F
:10029300F9FBFDFEFFFFFFFEFCFAF8F5F2EEEAE5DF
:1002A300E0DAD5CEC8C1BAB3ABA39C948C847B737C
:1002B3006B635C544C453E37312A251F1A15110DCB
:1002C3000A0705030100000001020406080C0F13CE
:1002D300181D22282E343B424950585F676F777FA1
:0C02E300C0F9A4B0999282F8809040927B
:00000001FF
