:1000000002016531243112313D214601D8EFC4335C
:1000100054E0FE440FF5A0ED9002B993F5902160F5
:10002300214F750BC8E4F50CF50D110330890B2036
:100033008B08740A250BF50BC28920890B308B08BA
:1000430074F6250BF50BC28B308909308B06150B23
:10005300C289C28BE50B75F002A485F00EF50FE59E
:100063000B75F005A485F00CF50DE50CFF3158AFC9
:100073000DE50D3158E50FB49013E50EB4010E7D77
:10008300017F01110D7D017F01110D80407D0A7FEC
:1000930001110DAE0CAF0D7C007D6431F1AD077F16
:1000A30002110DAE0CAF0D7C007D6431F17E007F3B
:1000B3000ACFCDCFCECCCE31F1AD077F03110DAE3C
:1000C3000CAF0D7C007D0A31F17F04110D7D0B7F98
:1000D30006110D012FC0E0C083C082C0D00509E521
:1000E3000970020508C3950FE508950E40187508B9
:1000F30000750900E50A90025593F580050AE50AA3
:10010300B46403750A00D0D0D082D083D0E03243E8
:100113008902758CD2758AD2D2A9D2B9D28CD2AFC8
:10012300223131C29FD29ED2ACC29CD2AF2243892C
:1001330020758DFD758BFDD28E22D288C2B8D2A8D0
:10014300D2AF22D28AC2BAD2AAD2AF2230980385C2
:100153009910C298328F993099FDC299227F05DF99
:10016300FE22787FE4F6D8FD7581100201AC02000F
:1001730025E493A3F8E493A34003F68001F208DF98
:10018300F48029E493A3F85407240CC8C333C4545C
:100193000F4420C8834004F456800146F6DFE48010
:1001A3000B0102040810204080900246E47E019374
:1001B30060BCA3FF543F30E509541FFEE493A360E2
:1001C300010ECF54C025E060A840B8E493A3FAE43D
:1001D30093A3F8E493A3C8C582C8CAC583CAF0A38E
:1001E300C8C582C8CAC583CADFE9DEE780BEBC00D2
:1001F3000BBE0029EF8DF084FFADF022E4CCF8753F
:10020300F008EF2FFFEE33FEEC33FCEE9DEC98404D
:1002130005FCEE9DFE0FD5F0E9E4CEFD22EDF8F5E9
:10022300F0EE8420D21CFEADF075F008EF2FFFED49
:1002330033FD4007985006D5F0F222C398FD0FD541
:10024300F0EA22020E000002080000010A00011079
:10025300000080889098A0A7AFB6BDC4CBD1D7DDEE
:10026300E2E7ECF0F3F7F9FBFDFEFFFFFFFEFCFA1C
:10027300F8F5F2EEEAE5E0DAD5CEC8C1BAB3ABA33E
:100283009C948C847B736B635C544C453E37312A5E
:10029300251F1A15110D0A070503010000000102AD
:1002A3000406080C0F13181D22282E343B42495014
:1002B300585F676F777FC0F9A4B0999282F88090F6
:0202C300409267
:00000001FF
